{
  "contractName": "InfernoSidechain",
  "abi": [
    {
      "constant": true,
      "inputs": [],
      "name": "miningContract",
      "outputs": [
        {
          "name": "",
          "type": "address"
        }
      ],
      "payable": false,
      "stateMutability": "view",
      "type": "function"
    },
    {
      "inputs": [
        {
          "name": "mContract",
          "type": "address"
        }
      ],
      "payable": false,
      "stateMutability": "nonpayable",
      "type": "constructor"
    },
    {
      "payable": true,
      "stateMutability": "payable",
      "type": "fallback"
    },
    {
      "constant": false,
      "inputs": [],
      "name": "getMiningAuthority",
      "outputs": [
        {
          "name": "",
          "type": "address"
        }
      ],
      "payable": false,
      "stateMutability": "nonpayable",
      "type": "function"
    },
    {
      "constant": false,
      "inputs": [],
      "name": "getMiningEpoch",
      "outputs": [
        {
          "name": "",
          "type": "uint256"
        }
      ],
      "payable": false,
      "stateMutability": "nonpayable",
      "type": "function"
    },
    {
      "constant": false,
      "inputs": [
        {
          "name": "proof",
          "type": "bytes32[]"
        },
        {
          "name": "root",
          "type": "bytes32"
        },
        {
          "name": "leaf",
          "type": "bytes32"
        }
      ],
      "name": "addNewBlock",
      "outputs": [
        {
          "name": "",
          "type": "bool"
        }
      ],
      "payable": false,
      "stateMutability": "nonpayable",
      "type": "function"
    }
  ],
  "bytecode": "0x608060405234801561001057600080fd5b5060405160208061066c8339810180604052810190808051906020019092919050505080600260006101000a81548173ffffffffffffffffffffffffffffffffffffffff021916908373ffffffffffffffffffffffffffffffffffffffff160217905550506105e8806100846000396000f300608060405260043610610062576000357c0100000000000000000000000000000000000000000000000000000000900463ffffffff168063087905c91461006757806328d187451461009257806389d3a15b146100e95780639156469714610183575b600080fd5b34801561007357600080fd5b5061007c6101da565b6040518082815260200191505060405180910390f35b34801561009e57600080fd5b506100a76102a2565b604051808273ffffffffffffffffffffffffffffffffffffffff1673ffffffffffffffffffffffffffffffffffffffff16815260200191505060405180910390f35b3480156100f557600080fd5b50610169600480360381019080803590602001908201803590602001908080602002602001604051908101604052809392919081815260200183836020028082843782019150505050505091929192908035600019169060200190929190803560001916906020019092919050505061036a565b604051808215151515815260200191505060405180910390f35b34801561018f57600080fd5b50610198610596565b604051808273ffffffffffffffffffffffffffffffffffffffff1673ffffffffffffffffffffffffffffffffffffffff16815260200191505060405180910390f35b6000600260009054906101000a900473ffffffffffffffffffffffffffffffffffffffff1673ffffffffffffffffffffffffffffffffffffffff1663829965cc6040518163ffffffff167c0100000000000000000000000000000000000000000000000000000000028152600401602060405180830381600087803b15801561026257600080fd5b505af1158015610276573d6000803e3d6000fd5b505050506040513d602081101561028c57600080fd5b8101908080519060200190929190505050905090565b6000600260009054906101000a900473ffffffffffffffffffffffffffffffffffffffff1673ffffffffffffffffffffffffffffffffffffffff16636fd396d66040518163ffffffff167c0100000000000000000000000000000000000000000000000000000000028152600401602060405180830381600087803b15801561032a57600080fd5b505af115801561033e573d6000803e3d6000fd5b505050506040513d602081101561035457600080fd5b8101908080519060200190929190505050905090565b6000806000806103786102a2565b73ffffffffffffffffffffffffffffffffffffffff163373ffffffffffffffffffffffffffffffffffffffff161415156103b157600080fd5b6001546000191685600019161415156103c957600080fd5b6103d16101da565b6000541015156103e057600080fd5b849250600091505b86518210156105665786828151811015156103ff57fe5b9060200190602002015190508060001916836000191610156104bc5782816040516020018083600019166000191681526020018260001916600019168152602001925050506040516020818303038152906040526040518082805190602001908083835b6020831015156104885780518252602082019150602081019050602083039250610463565b6001836020036101000a03801982511681845116808217855250505050505090500191505060405180910390209250610559565b80836040516020018083600019166000191681526020018260001916600019168152602001925050506040516020818303038152906040526040518082805190602001908083835b6020831015156105295780518252602082019150602081019050602083039250610504565b6001836020036101000a038019825116818451168082178552505050505050905001915050604051809103902092505b81806001019250506103e8565b85600181600019169055506105796101da565b600081905550856000191683600019161493505050509392505050565b600260009054906101000a900473ffffffffffffffffffffffffffffffffffffffff16815600a165627a7a723058203e2dc534af22328c5c1010b9940045e0139f5501606ba397513bebc45afea5a50029",
  "source": "pragma solidity ^0.4.18;\n\n\n\n\n/*\nContract for operating and maintaining an Inferno Sidechain\n\nOnly stores a simple merkle tree root hash on the Ethereum Mainnet\n\n*/\n\n\n\n\n/**\n * @title SafeMath\n * @dev Math operations with safety checks that throw on error\n */\nlibrary SafeMath {\n\n  /**\n  * @dev Multiplies two numbers, throws on overflow.\n  */\n  function mul(uint256 a, uint256 b) internal pure returns (uint256) {\n    if (a == 0) {\n      return 0;\n    }\n    uint256 c = a * b;\n    assert(c / a == b);\n    return c;\n  }\n\n  /**\n  * @dev Integer division of two numbers, truncating the quotient.\n  */\n  function div(uint256 a, uint256 b) internal pure returns (uint256) {\n    // assert(b > 0); // Solidity automatically throws when dividing by 0\n    uint256 c = a / b;\n    // assert(a == b * c + a % b); // There is no case in which this doesn't hold\n    return c;\n  }\n\n  /**\n  * @dev Substracts two numbers, throws on overflow (i.e. if subtrahend is greater than minuend).\n  */\n  function sub(uint256 a, uint256 b) internal pure returns (uint256) {\n    assert(b <= a);\n    return a - b;\n  }\n\n  /**\n  * @dev Adds two numbers, throws on overflow.\n  */\n  function add(uint256 a, uint256 b) internal pure returns (uint256) {\n    uint256 c = a + b;\n    assert(c >= a);\n    return c;\n  }\n}\n\n\ncontract ERC20Interface {\n    function totalSupply() public constant returns (uint);\n    function balanceOf(address tokenOwner) public constant returns (uint balance);\n    function allowance(address tokenOwner, address spender) public constant returns (uint remaining);\n    function transfer(address to, uint tokens) public returns (bool success);\n    function approve(address spender, uint tokens) public returns (bool success);\n    function transferFrom(address from, address to, uint tokens) public returns (bool success);\n\n    event Transfer(address indexed from, address indexed to, uint tokens);\n    event Approval(address indexed tokenOwner, address indexed spender, uint tokens);\n}\n\n\ncontract EIP918Interface {\n  function lastRewardTo() public returns (address);\n  function epochCount() public returns (uint);\n\n  function lastRewardAmount() public returns (uint);\n  function lastRewardEthBlockNumber() public returns (uint);\n\n  function totalSupply() public constant returns (uint);\n  function getMiningDifficulty() public constant returns (uint);\n  function getMiningTarget() public constant returns (uint);\n  function getMiningReward() public constant returns (uint);\n  function balanceOf(address tokenOwner) public constant returns (uint balance);\n\n  function mint(uint256 nonce, bytes32 challenge_digest) public returns (bool success);\n\n  event Mint(address indexed from, uint reward_amount, uint epochCount, bytes32 newChallengeNumber);\n\n}\n\n\n\ncontract InfernoSidechain   {\n    using SafeMath for uint;\n\n    uint lastBlockMiningEpoch;\n    bytes32 currentRootHash;\n\n\n    address public miningContract;\n\n\n\n   // 0xBTC is 0xb6ed7644c69416d67b522e20bc294a9a9b405b31;\n  constructor(address mContract) public  {\n    miningContract = mContract;\n  }\n\n\n  //do not allow ether to enter\n  function() public payable {\n      revert();\n  }\n\n  /*\n  Based on Proof of Work, EIP 918 and Mining Contract\n\n  This will typically return a smart contract but one which implements proper forwarding methods\n  */\n  function getMiningAuthority() public returns (address)\n  {\n    return EIP918Interface(miningContract).lastRewardTo();\n  }\n\n  function getMiningEpoch() public returns (uint)\n  {\n    return EIP918Interface(miningContract).epochCount();\n  }\n\n  /*\n  In this case, the leaf we start with is the currentRootHash\n\n  */\n  function addNewBlock(\n      bytes32[] proof,\n      bytes32 root,\n      bytes32 leaf\n    )\n      public \n      returns (bool)\n    {\n      require(msg.sender == getMiningAuthority());\n      require(leaf == currentRootHash); //must build off of the previous block\n      require(lastBlockMiningEpoch <  getMiningEpoch()); //one new sidechain block per Mining Round\n\n\n      bytes32 computedHash = leaf;\n\n      for (uint256 i = 0; i < proof.length; i++) {\n        bytes32 proofElement = proof[i];\n\n        if (computedHash < proofElement) {\n          computedHash = keccak256(abi.encodePacked(computedHash, proofElement));\n        } else {\n          computedHash = keccak256(abi.encodePacked(proofElement, computedHash));\n        }\n      }\n\n\n      currentRootHash = root; //update to the new overall chain state\n      lastBlockMiningEpoch = getMiningEpoch();\n\n\n      return computedHash == root;\n    }\n\n\n}\n",
  "sourcePath": "/home/andy/dev/inferno-sidechain/contracts/InfernoSidechain.sol",
  "compiler": {
    "name": "solc",
    "version": "0.4.24+commit.e67f0147.Emscripten.clang"
  },
  "schemaVersion": "2.0.1",
  "updatedAt": "2018-12-03T23:45:54.438Z"
}