{
  "contractName": "InfernoSidechain",
  "abi": [
    {
      "constant": true,
      "inputs": [
        {
          "name": "",
          "type": "bytes32"
        }
      ],
      "name": "imports",
      "outputs": [
        {
          "name": "id",
          "type": "bytes32"
        },
        {
          "name": "sender",
          "type": "address"
        },
        {
          "name": "token",
          "type": "address"
        },
        {
          "name": "tokens",
          "type": "uint256"
        }
      ],
      "payable": false,
      "stateMutability": "view",
      "type": "function"
    },
    {
      "constant": true,
      "inputs": [],
      "name": "miningContract",
      "outputs": [
        {
          "name": "",
          "type": "address"
        }
      ],
      "payable": false,
      "stateMutability": "view",
      "type": "function"
    },
    {
      "constant": true,
      "inputs": [
        {
          "name": "",
          "type": "address"
        }
      ],
      "name": "burnedTokens",
      "outputs": [
        {
          "name": "",
          "type": "uint256"
        }
      ],
      "payable": false,
      "stateMutability": "view",
      "type": "function"
    },
    {
      "constant": true,
      "inputs": [
        {
          "name": "",
          "type": "bytes32"
        }
      ],
      "name": "validatedExitTransactions",
      "outputs": [
        {
          "name": "",
          "type": "bool"
        }
      ],
      "payable": false,
      "stateMutability": "view",
      "type": "function"
    },
    {
      "constant": true,
      "inputs": [
        {
          "name": "",
          "type": "bytes32"
        }
      ],
      "name": "blocks",
      "outputs": [
        {
          "name": "root",
          "type": "bytes32"
        },
        {
          "name": "leaf",
          "type": "bytes32"
        },
        {
          "name": "depth",
          "type": "uint256"
        },
        {
          "name": "blockCount",
          "type": "uint256"
        }
      ],
      "payable": false,
      "stateMutability": "view",
      "type": "function"
    },
    {
      "inputs": [
        {
          "name": "mContract",
          "type": "address"
        }
      ],
      "payable": false,
      "stateMutability": "nonpayable",
      "type": "constructor"
    },
    {
      "payable": true,
      "stateMutability": "payable",
      "type": "fallback"
    },
    {
      "anonymous": false,
      "inputs": [
        {
          "indexed": false,
          "name": "from",
          "type": "address"
        },
        {
          "indexed": false,
          "name": "token",
          "type": "address"
        },
        {
          "indexed": false,
          "name": "tokens",
          "type": "uint256"
        },
        {
          "indexed": false,
          "name": "nonce",
          "type": "uint256"
        },
        {
          "indexed": false,
          "name": "id",
          "type": "bytes32"
        }
      ],
      "name": "ImportedTokens",
      "type": "event"
    },
    {
      "anonymous": false,
      "inputs": [
        {
          "indexed": false,
          "name": "from",
          "type": "address"
        },
        {
          "indexed": false,
          "name": "token",
          "type": "address"
        },
        {
          "indexed": false,
          "name": "tokens",
          "type": "uint256"
        },
        {
          "indexed": false,
          "name": "nonce",
          "type": "uint256"
        },
        {
          "indexed": false,
          "name": "id",
          "type": "bytes32"
        }
      ],
      "name": "ExportedTokens",
      "type": "event"
    },
    {
      "constant": false,
      "inputs": [],
      "name": "getMiningAuthority",
      "outputs": [
        {
          "name": "",
          "type": "address"
        }
      ],
      "payable": false,
      "stateMutability": "nonpayable",
      "type": "function"
    },
    {
      "constant": false,
      "inputs": [],
      "name": "getMiningEpoch",
      "outputs": [
        {
          "name": "",
          "type": "uint256"
        }
      ],
      "payable": false,
      "stateMutability": "nonpayable",
      "type": "function"
    },
    {
      "constant": false,
      "inputs": [
        {
          "name": "root",
          "type": "bytes32"
        },
        {
          "name": "leaf",
          "type": "bytes32"
        },
        {
          "name": "proof",
          "type": "bytes32"
        }
      ],
      "name": "addNewBlock",
      "outputs": [
        {
          "name": "",
          "type": "bool"
        }
      ],
      "payable": false,
      "stateMutability": "nonpayable",
      "type": "function"
    },
    {
      "constant": false,
      "inputs": [
        {
          "name": "from",
          "type": "address"
        },
        {
          "name": "tokens",
          "type": "uint256"
        }
      ],
      "name": "burnTokens",
      "outputs": [
        {
          "name": "",
          "type": "bool"
        }
      ],
      "payable": false,
      "stateMutability": "nonpayable",
      "type": "function"
    },
    {
      "constant": false,
      "inputs": [
        {
          "name": "from",
          "type": "address"
        },
        {
          "name": "token",
          "type": "address"
        },
        {
          "name": "tokens",
          "type": "uint256"
        },
        {
          "name": "nonce",
          "type": "uint256"
        }
      ],
      "name": "importTokensToSidechain",
      "outputs": [
        {
          "name": "",
          "type": "bool"
        }
      ],
      "payable": false,
      "stateMutability": "nonpayable",
      "type": "function"
    },
    {
      "constant": false,
      "inputs": [
        {
          "name": "branchHeadRoot",
          "type": "bytes32"
        },
        {
          "name": "branchProof",
          "type": "bytes32[]"
        },
        {
          "name": "root",
          "type": "bytes32"
        },
        {
          "name": "leaf",
          "type": "bytes32"
        },
        {
          "name": "proof",
          "type": "bytes32[]"
        },
        {
          "name": "from",
          "type": "address"
        },
        {
          "name": "token",
          "type": "address"
        },
        {
          "name": "tokens",
          "type": "uint256"
        },
        {
          "name": "nonce",
          "type": "uint256"
        }
      ],
      "name": "exportTokensFromSidechain",
      "outputs": [],
      "payable": false,
      "stateMutability": "nonpayable",
      "type": "function"
    },
    {
      "constant": false,
      "inputs": [
        {
          "name": "headRoot",
          "type": "bytes32"
        },
        {
          "name": "tailRoot",
          "type": "bytes32"
        }
      ],
      "name": "_validateQualityConsensus",
      "outputs": [
        {
          "name": "",
          "type": "bool"
        }
      ],
      "payable": false,
      "stateMutability": "nonpayable",
      "type": "function"
    }
  ],
  "bytecode": "0x608060405261040060035561010060045534801561001c57600080fd5b50604051602080611b0c8339810180604052810190808051906020019092919050505080600960006101000a81548173ffffffffffffffffffffffffffffffffffffffff021916908373ffffffffffffffffffffffffffffffffffffffff160217905550608060405190810160405280600060010260001916815260200160006001026000191681526020016000815260200160025481525060056000806001026000191681526020019081526020016000206000820151816000019060001916905560208201518160010190600019169055604082015181600201556060820151816003015590505061012960016002546101356401000000000261172a179091906401000000009004565b60028190555050610153565b600080828401905083811015151561014957fe5b8091505092915050565b6119aa806101626000396000f3006080604052600436106100ba576000357c0100000000000000000000000000000000000000000000000000000000900463ffffffff168063087905c9146100bf5780630d1118ce146100ea57806328d187451461014f57806365024ba5146101a657806369ec0a291461020b57806391564697146102c5578063b536c6861461031c578063ba9ca15914610373578063c93d4bd6146103bc578063f588a96a146104e3578063f6d2eb651461054d578063fa112473146105a4575b600080fd5b3480156100cb57600080fd5b506100d4610633565b6040518082815260200191505060405180910390f35b3480156100f657600080fd5b50610135600480360381019080803573ffffffffffffffffffffffffffffffffffffffff169060200190929190803590602001909291905050506106fb565b604051808215151515815260200191505060405180910390f35b34801561015b57600080fd5b506101646108e1565b604051808273ffffffffffffffffffffffffffffffffffffffff1673ffffffffffffffffffffffffffffffffffffffff16815260200191505060405180910390f35b3480156101b257600080fd5b506101f16004803603810190808035600019169060200190929190803560001916906020019092919080356000191690602001909291905050506109a9565b604051808215151515815260200191505060405180910390f35b34801561021757600080fd5b5061023a6004803603810190808035600019169060200190929190505050610bdc565b6040518085600019166000191681526020018473ffffffffffffffffffffffffffffffffffffffff1673ffffffffffffffffffffffffffffffffffffffff1681526020018373ffffffffffffffffffffffffffffffffffffffff1673ffffffffffffffffffffffffffffffffffffffff16815260200182815260200194505050505060405180910390f35b3480156102d157600080fd5b506102da610c4c565b604051808273ffffffffffffffffffffffffffffffffffffffff1673ffffffffffffffffffffffffffffffffffffffff16815260200191505060405180910390f35b34801561032857600080fd5b5061035d600480360381019080803573ffffffffffffffffffffffffffffffffffffffff169060200190929190505050610c72565b6040518082815260200191505060405180910390f35b34801561037f57600080fd5b506103a26004803603810190808035600019169060200190929190505050610c8a565b604051808215151515815260200191505060405180910390f35b3480156103c857600080fd5b506104e16004803603810190808035600019169060200190929190803590602001908201803590602001908080602002602001604051908101604052809392919081815260200183836020028082843782019150505050505091929192908035600019169060200190929190803560001916906020019092919080359060200190820180359060200190808060200260200160405190810160405280939291908181526020018383602002808284378201915050505050509192919290803573ffffffffffffffffffffffffffffffffffffffff169060200190929190803573ffffffffffffffffffffffffffffffffffffffff1690602001909291908035906020019092919080359060200190929190505050610caa565b005b3480156104ef57600080fd5b5061051260048036038101908080356000191690602001909291905050506110ae565b604051808560001916600019168152602001846000191660001916815260200183815260200182815260200194505050505060405180910390f35b34801561055957600080fd5b5061058a600480360381019080803560001916906020019092919080356000191690602001909291905050506110de565b604051808215151515815260200191505060405180910390f35b3480156105b057600080fd5b50610619600480360381019080803573ffffffffffffffffffffffffffffffffffffffff169060200190929190803573ffffffffffffffffffffffffffffffffffffffff16906020019092919080359060200190929190803590602001909291905050506112a5565b604051808215151515815260200191505060405180910390f35b6000600960009054906101000a900473ffffffffffffffffffffffffffffffffffffffff1673ffffffffffffffffffffffffffffffffffffffff1663829965cc6040518163ffffffff167c0100000000000000000000000000000000000000000000000000000000028152600401602060405180830381600087803b1580156106bb57600080fd5b505af11580156106cf573d6000803e3d6000fd5b505050506040513d60208110156106e557600080fd5b8101908080519060200190929190505050905090565b60008060009050600960009054906101000a900473ffffffffffffffffffffffffffffffffffffffff1673ffffffffffffffffffffffffffffffffffffffff166323b872dd8583866040518463ffffffff167c0100000000000000000000000000000000000000000000000000000000028152600401808473ffffffffffffffffffffffffffffffffffffffff1673ffffffffffffffffffffffffffffffffffffffff1681526020018373ffffffffffffffffffffffffffffffffffffffff1673ffffffffffffffffffffffffffffffffffffffff1681526020018281526020019350505050602060405180830381600087803b1580156107fb57600080fd5b505af115801561080f573d6000803e3d6000fd5b505050506040513d602081101561082557600080fd5b8101908080519060200190929190505050151561084157600080fd5b61089383600860008773ffffffffffffffffffffffffffffffffffffffff1673ffffffffffffffffffffffffffffffffffffffff1681526020019081526020016000205461172a90919063ffffffff16565b600860008673ffffffffffffffffffffffffffffffffffffffff1673ffffffffffffffffffffffffffffffffffffffff16815260200190815260200160002081905550600191505092915050565b6000600960009054906101000a900473ffffffffffffffffffffffffffffffffffffffff1673ffffffffffffffffffffffffffffffffffffffff16636fd396d66040518163ffffffff167c0100000000000000000000000000000000000000000000000000000000028152600401602060405180830381600087803b15801561096957600080fd5b505af115801561097d573d6000803e3d6000fd5b505050506040513d602081101561099357600080fd5b8101908080519060200190929190505050905090565b600060606000806109b861194f565b60006109c26108e1565b73ffffffffffffffffffffffffffffffffffffffff163373ffffffffffffffffffffffffffffffffffffffff161415156109fb57600080fd5b8760001916600560008a6000191660001916815260200190815260200160002060000154600019161480610a36575060006001028860001916145b1515610a4157600080fd5b610a49610633565b600054101515610a5857600080fd5b86856000815181101515610a6857fe5b906020019060200201906000191690816000191681525050610a8a8886611748565b935088600019168460001916141515610aa257600080fd5b87925060056000846000191660001916815260200190815260200160002060806040519081016040529081600082015460001916600019168152602001600182015460001916600019168152602001600282015481526020016003820154815250509150610b1e6001836040015161172a90919063ffffffff16565b9050600154811115610b3257806001819055505b6080604051908101604052808a60001916815260200189600019168152602001828152602001600254815250600560008b6000191660001916815260200190815260200160002060008201518160000190600019169055602082015181600101906000191690556040820151816002015560608201518160030155905050610bc6600160025461172a90919063ffffffff16565b6002819055506001955050505050509392505050565b60066020528060005260406000206000915090508060000154908060010160009054906101000a900473ffffffffffffffffffffffffffffffffffffffff16908060020160009054906101000a900473ffffffffffffffffffffffffffffffffffffffff16908060030154905084565b600960009054906101000a900473ffffffffffffffffffffffffffffffffffffffff1681565b60086020528060005260406000206000915090505481565b60076020528060005260406000206000915054906101000a900460ff1681565b6000308585858560405160200180807f65786974000000000000000000000000000000000000000000000000000000008152506004018673ffffffffffffffffffffffffffffffffffffffff1673ffffffffffffffffffffffffffffffffffffffff166c010000000000000000000000000281526014018573ffffffffffffffffffffffffffffffffffffffff1673ffffffffffffffffffffffffffffffffffffffff166c010000000000000000000000000281526014018473ffffffffffffffffffffffffffffffffffffffff1673ffffffffffffffffffffffffffffffffffffffff166c01000000000000000000000000028152601401838152602001828152602001955050505050506040516020818303038152906040526040518082805190602001908083835b602083101515610dfa5780518252602082019150602081019050602083039250610dd5565b6001836020036101000a0380198251168184511680821785525050505050509050019150506040518091039020905080600019168760001916141515610e3f57600080fd5b6001151560076000896000191660001916815260200190815260200160002060009054906101000a900460ff16151514151515610e7b57600080fd5b8960001916610e8a898b611748565b60001916141515610e9a57600080fd5b8760001916610ea98888611748565b60001916141515610eb957600080fd5b610ec38a896110de565b1515610ece57600080fd5b600160076000896000191660001916815260200190815260200160002060006101000a81548160ff0219169083151502179055508373ffffffffffffffffffffffffffffffffffffffff1663a9059cbb86856040518363ffffffff167c0100000000000000000000000000000000000000000000000000000000028152600401808373ffffffffffffffffffffffffffffffffffffffff1673ffffffffffffffffffffffffffffffffffffffff16815260200182815260200192505050602060405180830381600087803b158015610fa557600080fd5b505af1158015610fb9573d6000803e3d6000fd5b505050506040513d6020811015610fcf57600080fd5b81019080805190602001909291905050501515610feb57600080fd5b7ff9388ecec2aa7059bf7b9f35d064952b322a762523a679765d4b00bcdc3aa04f8585858585604051808673ffffffffffffffffffffffffffffffffffffffff1673ffffffffffffffffffffffffffffffffffffffff1681526020018573ffffffffffffffffffffffffffffffffffffffff1673ffffffffffffffffffffffffffffffffffffffff16815260200184815260200183815260200182600019166000191681526020019550505050505060405180910390a150505050505050505050565b60056020528060005260406000206000915090508060000154908060010154908060020154908060030154905084565b600080600080611117600454600560008960001916600019168152602001908152602001600020600201546118e090919063ffffffff16565b6005600087600019166000191681526020019081526020016000206002015414151561114257600080fd5b60006005600087600019166000191681526020019081526020016000206002015411151561116f57600080fd5b60035460015410806111b457506111936003546001546118e090919063ffffffff16565b60056000876000191660001916815260200190815260200160002060020154115b15156111bf57600080fd5b61120e60056000876000191660001916815260200190815260200160002060030154600560008960001916600019168152602001908152602001600020600301546118e090919063ffffffff16565b925061125f60056000876000191660001916815260200190815260200160002060020154600560008960001916600019168152602001908152602001600020600201546118e090919063ffffffff16565b9150611288606461127a606e856118f990919063ffffffff16565b61193490919063ffffffff16565b9050808310151561129857600080fd5b6001935050505092915050565b6000808585853086604051602001808673ffffffffffffffffffffffffffffffffffffffff1673ffffffffffffffffffffffffffffffffffffffff166c010000000000000000000000000281526014018573ffffffffffffffffffffffffffffffffffffffff1673ffffffffffffffffffffffffffffffffffffffff166c010000000000000000000000000281526014018481526020018373ffffffffffffffffffffffffffffffffffffffff1673ffffffffffffffffffffffffffffffffffffffff166c01000000000000000000000000028152601401828152602001955050505050506040516020818303038152906040526040518082805190602001908083835b6020831015156113ce57805182526020820191506020810190506020830392506113a9565b6001836020036101000a038019825116818451168082178552505050505050905001915050604051809103902090506000600102600660008360001916600019168152602001908152602001600020600001546000191614151561143157600080fd5b608060405190810160405280826000191681526020018773ffffffffffffffffffffffffffffffffffffffff1681526020018673ffffffffffffffffffffffffffffffffffffffff168152602001858152506006600083600019166000191681526020019081526020016000206000820151816000019060001916905560208201518160010160006101000a81548173ffffffffffffffffffffffffffffffffffffffff021916908373ffffffffffffffffffffffffffffffffffffffff16021790555060408201518160020160006101000a81548173ffffffffffffffffffffffffffffffffffffffff021916908373ffffffffffffffffffffffffffffffffffffffff160217905550606082015181600301559050508473ffffffffffffffffffffffffffffffffffffffff166323b872dd8730876040518463ffffffff167c0100000000000000000000000000000000000000000000000000000000028152600401808473ffffffffffffffffffffffffffffffffffffffff1673ffffffffffffffffffffffffffffffffffffffff1681526020018373ffffffffffffffffffffffffffffffffffffffff1673ffffffffffffffffffffffffffffffffffffffff1681526020018281526020019350505050602060405180830381600087803b15801561162057600080fd5b505af1158015611634573d6000803e3d6000fd5b505050506040513d602081101561164a57600080fd5b8101908080519060200190929190505050151561166657600080fd5b7fa17f23169ac23698b37bbe4e00f73f9ff65487e0c17fea61c006c9acfaac21a58686868685604051808673ffffffffffffffffffffffffffffffffffffffff1673ffffffffffffffffffffffffffffffffffffffff1681526020018573ffffffffffffffffffffffffffffffffffffffff1673ffffffffffffffffffffffffffffffffffffffff16815260200184815260200183815260200182600019166000191681526020019550505050505060405180910390a16001915050949350505050565b600080828401905083811015151561173e57fe5b8091505092915050565b600080600080859250600091505b84518210156118d457848281518110151561176d57fe5b90602001906020020151905080600019168360001916101561182a5782816040516020018083600019166000191681526020018260001916600019168152602001925050506040516020818303038152906040526040518082805190602001908083835b6020831015156117f657805182526020820191506020810190506020830392506117d1565b6001836020036101000a038019825116818451168082178552505050505050905001915050604051809103902092506118c7565b80836040516020018083600019166000191681526020018260001916600019168152602001925050506040516020818303038152906040526040518082805190602001908083835b6020831015156118975780518252602082019150602081019050602083039250611872565b6001836020036101000a038019825116818451168082178552505050505050905001915050604051809103902092505b8180600101925050611756565b82935050505092915050565b60008282111515156118ee57fe5b818303905092915050565b600080600084141561190e576000915061192d565b828402905082848281151561191f57fe5b0414151561192957fe5b8091505b5092915050565b600080828481151561194257fe5b0490508091505092915050565b6080604051908101604052806000801916815260200160008019168152602001600081526020016000815250905600a165627a7a72305820e0fb3feb23ff4633c6d84d6a49052c83cc7079eed7175dec0e15154000a4a6750029",
  "source": "pragma solidity ^0.4.18;\n\n\n\n\n/*\nContract for operating and maintaining an Inferno Sidechain\nOnly stores a simple merkle tree root hash on the Ethereum Mainnet\n\n\n______\n\nThe mapping 'blocks' is a collection of blocks which all reference some other previous block.\nSidechain Nodes must determine which of these blocks has the most valid blocks sequentially behind it (ending at the genesis block, and the node must have all TX data for each block -- synced)\n\n\n*/\n\n\n\n  /*\n  Sidechain TX Formats   rev 1\n  //fee always in 0xBTC\n\n  import(from, token, tokens,fee)\n  transfer(from,to,token,tokens,fee)\n  export(from, token, tokens , fee)\n\n\n  */\n\n\n\n\n/**\n * @title SafeMath\n * @dev Math operations with safety checks that throw on error\n */\nlibrary SafeMath {\n\n  /**\n  * @dev Multiplies two numbers, throws on overflow.\n  */\n  function mul(uint256 a, uint256 b) internal pure returns (uint256) {\n    if (a == 0) {\n      return 0;\n    }\n    uint256 c = a * b;\n    assert(c / a == b);\n    return c;\n  }\n\n  /**\n  * @dev Integer division of two numbers, truncating the quotient.\n  */\n  function div(uint256 a, uint256 b) internal pure returns (uint256) {\n    // assert(b > 0); // Solidity automatically throws when dividing by 0\n    uint256 c = a / b;\n    // assert(a == b * c + a % b); // There is no case in which this doesn't hold\n    return c;\n  }\n\n  /**\n  * @dev Substracts two numbers, throws on overflow (i.e. if subtrahend is greater than minuend).\n  */\n  function sub(uint256 a, uint256 b) internal pure returns (uint256) {\n    assert(b <= a);\n    return a - b;\n  }\n\n  /**\n  * @dev Adds two numbers, throws on overflow.\n  */\n  function add(uint256 a, uint256 b) internal pure returns (uint256) {\n    uint256 c = a + b;\n    assert(c >= a);\n    return c;\n  }\n}\n\n\ncontract ERC20Interface {\n    function totalSupply() public constant returns (uint);\n    function balanceOf(address tokenOwner) public constant returns (uint balance);\n    function allowance(address tokenOwner, address spender) public constant returns (uint remaining);\n    function transfer(address to, uint tokens) public returns (bool success);\n    function approve(address spender, uint tokens) public returns (bool success);\n    function transferFrom(address from, address to, uint tokens) public returns (bool success);\n\n    event Transfer(address indexed from, address indexed to, uint tokens);\n    event Approval(address indexed tokenOwner, address indexed spender, uint tokens);\n}\n\n\ncontract EIP918Interface {\n  function lastRewardTo() public returns (address);\n  function epochCount() public returns (uint);\n\n  function lastRewardAmount() public returns (uint);\n  function lastRewardEthBlockNumber() public returns (uint);\n\n  function totalSupply() public constant returns (uint);\n  function getMiningDifficulty() public constant returns (uint);\n  function getMiningTarget() public constant returns (uint);\n  function getMiningReward() public constant returns (uint);\n  function balanceOf(address tokenOwner) public constant returns (uint balance);\n\n  function mint(uint256 nonce, bytes32 challenge_digest) public returns (bool success);\n\n  event Mint(address indexed from, uint reward_amount, uint epochCount, bytes32 newChallengeNumber);\n\n}\n\n\n\ncontract InfernoSidechain   {\n    using SafeMath for uint;\n\n    uint lastBlockMiningEpoch;\n\n    uint deepestDepth;\n\n    uint totalBlockCount;\n\n    uint REQUIRED_DEPTH_BLOCKS = 1024;\n\n    uint REQUIRED_CONFIRMATION_BLOCKS = 256;\n\n   // rootHash => Block\n   mapping(bytes32 => Block) public blocks;\n\n   //utxo hash -> import\n   mapping(bytes32 => GenesisImport) public imports;\n\n   mapping(bytes32 => bool) public validatedExitTransactions;\n\n   //Burn tokens to communicate with peers who\n   //require minimum burned tokens.\n   //Allows for peer blacklisting\n   mapping(address => uint) public burnedTokens;\n\n\n   struct Block\n   {\n    bytes32 root;\n    bytes32 leaf; //root of previous block\n\n    uint depth; //the number of block parents\n    uint blockCount;\n   }\n\n   struct GenesisImport\n   {\n     bytes32 id; //referenced in the sidechain import tx\n     address sender;\n     address token;\n     uint tokens;\n   }\n\n\n    address public miningContract;\n\n\n    event ImportedTokens(address from, address token, uint tokens, uint nonce, bytes32 id);\n    event ExportedTokens(address from, address token, uint tokens, uint nonce, bytes32 id);\n\n\n   // 0xBTC is 0xb6ed7644c69416d67b522e20bc294a9a9b405b31;\n  constructor(address mContract) public  {\n    miningContract = mContract;\n\n    //add genesis block\n    blocks[0x0] = Block(0x0,0x0,0,totalBlockCount);\n\n    totalBlockCount = totalBlockCount.add(1);\n  }\n\n\n  //do not allow ether to enter\n  function() public payable {\n      revert();\n  }\n\n\n\n  /*\n    Authority to add blocks based on Proof of Work, EIP 918 and Mining Contract\n  */\n\n  function getMiningAuthority() public returns (address)\n  {\n    return EIP918Interface(miningContract).lastRewardTo();\n  }\n\n  function getMiningEpoch() public returns (uint)\n  {\n    return EIP918Interface(miningContract).epochCount();\n  }\n\n\n  function addNewBlock(\n\n      bytes32 root, //new block hash\n      bytes32 leaf, //previous block hash\n      bytes32 proof //hash of all the new blocks tx, hash(tx1_hash,tx2_hash...txN_hash)\n\n    )\n      public\n      returns (bool)\n    {\n      require(msg.sender == getMiningAuthority());\n      require(blocks[leaf].root == leaf || leaf == 0x0); //must build off of an existing block OR the genesis block\n      require(lastBlockMiningEpoch <  getMiningEpoch()); //one new sidechain block per Mining Round\n\n      bytes32[] memory proof_array;\n      proof_array[0] = proof;\n\n      bytes32 computedHash =  _getMerkleRoot(leaf,proof_array);\n\n      require(computedHash == root);\n\n\n\n      bytes32 nextParentRoot = leaf;\n\n      Block memory parent = blocks[nextParentRoot];\n\n\n      uint thisBlockDepth = parent.depth.add(1);\n\n       if( thisBlockDepth > deepestDepth )\n      {\n        deepestDepth = thisBlockDepth;\n      }\n\n\n      blocks[root] = Block(root,leaf,thisBlockDepth,totalBlockCount);\n\n      totalBlockCount = totalBlockCount.add(1);\n\n      return true;\n    }\n\n\n\n\n    function _getMerkleRoot (\n      bytes32 leaf,\n      bytes32[] proof\n     ) internal pure returns (bytes32)\n     {\n\n       bytes32 computedHash = leaf;\n\n       for (uint256 i = 0; i < proof.length; i++) {\n         bytes32 proofElement = proof[i];\n\n         if (computedHash < proofElement) {\n           computedHash = keccak256(abi.encodePacked(computedHash, proofElement));\n         } else {\n           computedHash = keccak256(abi.encodePacked(proofElement, computedHash));\n         }\n       }\n\n       return computedHash;\n\n     }\n\n\n     function burnTokens(address from, uint tokens ) public returns (bool)\n     {\n       address burnAddress = 0x0;\n\n       require(  ERC20Interface(miningContract).transferFrom(from, burnAddress, tokens ) );\n\n       burnedTokens[from] = burnedTokens[from].add(tokens);\n\n       return true;\n     }\n\n\n\n    //import tokens\n    // This makes a new 'genesis import' hash .... saved in contract.\n    // Similar to a coinbase tx for the sidechain -- new tokens enter supply\n    function importTokensToSidechain(address from,address token, uint tokens, uint nonce) public returns (bool)\n    {\n\n\n      bytes32 id = keccak256(abi.encodePacked( from, token, tokens, this, nonce ));\n\n      require( imports[id].id == 0); //uuid must not already exist\n\n      imports[id] = GenesisImport(id, from, token, tokens);\n\n      require(  ERC20Interface(token).transferFrom(from, this, tokens ) );\n\n      emit ImportedTokens( from, token, tokens, nonce, id );\n\n      return true;\n    }\n\n\n\n\n\n    //Export tokens from the sidechain to mainnet\n    function exportTokensFromSidechain(\n      bytes32 branchHeadRoot,\n      bytes32[] branchProof, //prove that the 'root' is part of the 'branch head root', just all the roots of the blocks between\n\n      bytes32 root, //hash of the block containing the exit transaction\n      bytes32 leaf, //exit transaction\n      bytes32[] proof, //all other tx in this block (their hashes)\n\n      address from,\n      address token,\n      uint tokens,\n      uint nonce // ?\n    )\n    {\n\n      bytes32 exitTransactionHash = keccak256(abi.encodePacked('exit',this,from,token,tokens,nonce));//this is the 'hash' of a sidechain TX\n      require( leaf == exitTransactionHash);\n\n      //must not have exported this leaf before\n      require(validatedExitTransactions[leaf] != true);\n\n\n\n      //prove that the 'root' is part of the 'branch head root' (no way to compute branchProof to fit)\n      require(_getMerkleRoot(root,branchProof) == branchHeadRoot);\n\n      //prove that the transaction is part of the root block (no way to compute proof to fit)\n      require(_getMerkleRoot(leaf,proof) == root);\n\n\n      require(_validateQualityConsensus(branchHeadRoot, root));\n\n\n\n\n      validatedExitTransactions[leaf] = true;\n      require( ERC20Interface(token).transfer(from, tokens ) );\n\n      emit ExportedTokens( from, token, tokens, nonce, exitTransactionHash );\n\n\n    }\n\n    //requires that the head block ultimately built on top of the tail block\n    //requires that there is REQUIRED_CONFIRMATION_BLOCKS of blocks in between\n    //requires that there was high quality consensus (>90%) over that confirmation segment\n    function _validateQualityConsensus(bytes32 headRoot, bytes32 tailRoot) public returns (bool)\n    {\n\n      //require that the segment is exactly REQUIRED_CONFIRMATION_BLOCKS blocks long\n      require(blocks[tailRoot].depth == blocks[headRoot].depth.sub(REQUIRED_CONFIRMATION_BLOCKS)); // at least 256 confirms\n      require(blocks[tailRoot].depth > 0);\n\n      //require that the exit transaction is relatively recent, this just allows them to expire \n      require(deepestDepth < REQUIRED_DEPTH_BLOCKS || blocks[tailRoot].depth > deepestDepth.sub(REQUIRED_DEPTH_BLOCKS));\n\n\n      //make sure the branch segment of the confirms (tail to head) had better than 90% consensus\n      uint blockCountDifference = blocks[headRoot].blockCount.sub( blocks[tailRoot].blockCount );\n      uint blockDepthDifference = blocks[headRoot].depth.sub( blocks[tailRoot].depth );\n\n      uint blockCountDifferenceLimit = blockDepthDifference.mul(110).div(100);\n\n      require( blockCountDifference < blockCountDifferenceLimit );\n\n      return true;\n\n    }\n\n\n\n    /*\n\n    PROBLEM: A contentious 51% attacker can make new 'exit' tx with no parents/history and steal tokens\n    ...perhaps use UTXO and prove them on each new block added ? ...prove them on exit ?\n\n\n    User must provide a root for a head-block of a branch which has a depth\n    equal to the 'deepestDepth'  global.   We compute its depth to make sure.\n    Then,   Require a UTXO proof that there is a withdrawl tx in a block\n    under that heads sidechain branch which has at least REQUIRED_CONFIRMATION_BLOCKS confirms.\n    the UTXO must begin at the import UTXO hash.\n    */\n    //still  a WIP\n\n    //1) How do we ensure that the exit tx does not make the users sidechain balance go to 0 ?\n\n   //A) What if we had a 'checkpoint hash' that represented everyones balance !\n    // Then a whistleblower can show that a TX would make someones balance go negative\n\n\n\n\n}\n",
  "sourcePath": "/home/andy/dev/inferno-sidechain/contracts/InfernoSidechain.sol",
  "compiler": {
    "name": "solc",
    "version": "0.4.24+commit.e67f0147.Emscripten.clang"
  },
  "schemaVersion": "2.0.1",
  "updatedAt": "2018-12-08T00:46:25.625Z"
}