{
  "contractName": "InfernoSidechain",
  "abi": [
    {
      "constant": true,
      "inputs": [
        {
          "name": "",
          "type": "bytes32"
        }
      ],
      "name": "imports",
      "outputs": [
        {
          "name": "id",
          "type": "bytes32"
        },
        {
          "name": "sender",
          "type": "address"
        },
        {
          "name": "token",
          "type": "address"
        },
        {
          "name": "tokens",
          "type": "uint256"
        }
      ],
      "payable": false,
      "stateMutability": "view",
      "type": "function"
    },
    {
      "constant": true,
      "inputs": [],
      "name": "miningContract",
      "outputs": [
        {
          "name": "",
          "type": "address"
        }
      ],
      "payable": false,
      "stateMutability": "view",
      "type": "function"
    },
    {
      "constant": true,
      "inputs": [
        {
          "name": "",
          "type": "bytes32"
        }
      ],
      "name": "validatedExitTransactions",
      "outputs": [
        {
          "name": "",
          "type": "bool"
        }
      ],
      "payable": false,
      "stateMutability": "view",
      "type": "function"
    },
    {
      "constant": true,
      "inputs": [
        {
          "name": "",
          "type": "bytes32"
        }
      ],
      "name": "blocks",
      "outputs": [
        {
          "name": "root",
          "type": "bytes32"
        },
        {
          "name": "leaf",
          "type": "bytes32"
        },
        {
          "name": "depth",
          "type": "uint256"
        },
        {
          "name": "epochCount",
          "type": "uint256"
        },
        {
          "name": "blockCount",
          "type": "uint256"
        }
      ],
      "payable": false,
      "stateMutability": "view",
      "type": "function"
    },
    {
      "inputs": [
        {
          "name": "mContract",
          "type": "address"
        }
      ],
      "payable": false,
      "stateMutability": "nonpayable",
      "type": "constructor"
    },
    {
      "payable": true,
      "stateMutability": "payable",
      "type": "fallback"
    },
    {
      "constant": false,
      "inputs": [],
      "name": "getMiningAuthority",
      "outputs": [
        {
          "name": "",
          "type": "address"
        }
      ],
      "payable": false,
      "stateMutability": "nonpayable",
      "type": "function"
    },
    {
      "constant": false,
      "inputs": [],
      "name": "getMiningEpoch",
      "outputs": [
        {
          "name": "",
          "type": "uint256"
        }
      ],
      "payable": false,
      "stateMutability": "nonpayable",
      "type": "function"
    },
    {
      "constant": false,
      "inputs": [
        {
          "name": "root",
          "type": "bytes32"
        },
        {
          "name": "leaf",
          "type": "bytes32"
        },
        {
          "name": "proof",
          "type": "bytes32[]"
        }
      ],
      "name": "addNewBlock",
      "outputs": [
        {
          "name": "",
          "type": "bool"
        }
      ],
      "payable": false,
      "stateMutability": "nonpayable",
      "type": "function"
    },
    {
      "constant": false,
      "inputs": [
        {
          "name": "from",
          "type": "address"
        },
        {
          "name": "token",
          "type": "address"
        },
        {
          "name": "tokens",
          "type": "uint256"
        },
        {
          "name": "input",
          "type": "bytes32"
        }
      ],
      "name": "importTokensToSidechain",
      "outputs": [
        {
          "name": "",
          "type": "bool"
        }
      ],
      "payable": false,
      "stateMutability": "nonpayable",
      "type": "function"
    },
    {
      "constant": false,
      "inputs": [
        {
          "name": "branchHeadRoot",
          "type": "bytes32"
        },
        {
          "name": "branchProof",
          "type": "bytes32[]"
        },
        {
          "name": "root",
          "type": "bytes32"
        },
        {
          "name": "leaf",
          "type": "bytes32"
        },
        {
          "name": "proof",
          "type": "bytes32[]"
        },
        {
          "name": "from",
          "type": "address"
        },
        {
          "name": "token",
          "type": "address"
        },
        {
          "name": "tokens",
          "type": "uint256"
        },
        {
          "name": "nonce",
          "type": "uint256"
        }
      ],
      "name": "exportTokensFromSidechain",
      "outputs": [],
      "payable": false,
      "stateMutability": "nonpayable",
      "type": "function"
    },
    {
      "constant": false,
      "inputs": [
        {
          "name": "headRoot",
          "type": "bytes32"
        },
        {
          "name": "tailRoot",
          "type": "bytes32"
        }
      ],
      "name": "_validateQualityConsensus",
      "outputs": [
        {
          "name": "",
          "type": "bool"
        }
      ],
      "payable": false,
      "stateMutability": "nonpayable",
      "type": "function"
    }
  ],
  "bytecode": "0x608060405261010060035534801561001657600080fd5b50604051602080620017bb8339810180604052810190808051906020019092919050505080600760006101000a81548173ffffffffffffffffffffffffffffffffffffffff021916908373ffffffffffffffffffffffffffffffffffffffff16021790555061009261015f640100000000026401000000009004565b60008190555060a0604051908101604052806000600102600019168152602001600060010260001916815260200160008152602001600054815260200160025481525060046000806001026000191681526020019081526020016000206000820151816000019060001916905560208201518160010190600019169055604082015181600201556060820151816003015560808201518160040155905050610153600160025461022764010000000002611477179091906401000000009004565b60028190555050610245565b6000600760009054906101000a900473ffffffffffffffffffffffffffffffffffffffff1673ffffffffffffffffffffffffffffffffffffffff1663829965cc6040518163ffffffff167c0100000000000000000000000000000000000000000000000000000000028152600401602060405180830381600087803b1580156101e757600080fd5b505af11580156101fb573d6000803e3d6000fd5b505050506040513d602081101561021157600080fd5b8101908080519060200190929190505050905090565b600080828401905083811015151561023b57fe5b8091505092915050565b61156680620002556000396000f3006080604052600436106100a4576000357c0100000000000000000000000000000000000000000000000000000000900463ffffffff168063087905c9146100a95780630c08ec49146100d457806328d18745146101675780632cfbd0b9146101be57806369ec0a29146102585780639156469714610312578063ba9ca15914610369578063c93d4bd6146103b2578063f588a96a146104d9578063f6d2eb651461054a575b600080fd5b3480156100b557600080fd5b506100be6105a1565b6040518082815260200191505060405180910390f35b3480156100e057600080fd5b5061014d600480360381019080803573ffffffffffffffffffffffffffffffffffffffff169060200190929190803573ffffffffffffffffffffffffffffffffffffffff169060200190929190803590602001909291908035600019169060200190929190505050610669565b604051808215151515815260200191505060405180910390f35b34801561017357600080fd5b5061017c610a47565b604051808273ffffffffffffffffffffffffffffffffffffffff1673ffffffffffffffffffffffffffffffffffffffff16815260200191505060405180910390f35b3480156101ca57600080fd5b5061023e6004803603810190808035600019169060200190929190803560001916906020019092919080359060200190820180359060200190808060200260200160405190810160405280939291908181526020018383602002808284378201915050505050509192919290505050610b0f565b604051808215151515815260200191505060405180910390f35b34801561026457600080fd5b506102876004803603810190808035600019169060200190929190505050610d2f565b6040518085600019166000191681526020018473ffffffffffffffffffffffffffffffffffffffff1673ffffffffffffffffffffffffffffffffffffffff1681526020018373ffffffffffffffffffffffffffffffffffffffff1673ffffffffffffffffffffffffffffffffffffffff16815260200182815260200194505050505060405180910390f35b34801561031e57600080fd5b50610327610d9f565b604051808273ffffffffffffffffffffffffffffffffffffffff1673ffffffffffffffffffffffffffffffffffffffff16815260200191505060405180910390f35b34801561037557600080fd5b506103986004803603810190808035600019169060200190929190505050610dc5565b604051808215151515815260200191505060405180910390f35b3480156103be57600080fd5b506104d76004803603810190808035600019169060200190929190803590602001908201803590602001908080602002602001604051908101604052809392919081815260200183836020028082843782019150505050505091929192908035600019169060200190929190803560001916906020019092919080359060200190820180359060200190808060200260200160405190810160405280939291908181526020018383602002808284378201915050505050509192919290803573ffffffffffffffffffffffffffffffffffffffff169060200190929190803573ffffffffffffffffffffffffffffffffffffffff1690602001909291908035906020019092919080359060200190929190505050610de5565b005b3480156104e557600080fd5b506105086004803603810190808035600019169060200190929190505050611132565b60405180866000191660001916815260200185600019166000191681526020018481526020018381526020018281526020019550505050505060405180910390f35b34801561055657600080fd5b5061058760048036038101908080356000191690602001909291908035600019169060200190929190505050611168565b604051808215151515815260200191505060405180910390f35b6000600760009054906101000a900473ffffffffffffffffffffffffffffffffffffffff1673ffffffffffffffffffffffffffffffffffffffff1663829965cc6040518163ffffffff167c0100000000000000000000000000000000000000000000000000000000028152600401602060405180830381600087803b15801561062957600080fd5b505af115801561063d573d6000803e3d6000fd5b505050506040513d602081101561065357600080fd5b8101908080519060200190929190505050905090565b600080338585304387604051602001808773ffffffffffffffffffffffffffffffffffffffff1673ffffffffffffffffffffffffffffffffffffffff166c010000000000000000000000000281526014018673ffffffffffffffffffffffffffffffffffffffff1673ffffffffffffffffffffffffffffffffffffffff166c010000000000000000000000000281526014018581526020018473ffffffffffffffffffffffffffffffffffffffff1673ffffffffffffffffffffffffffffffffffffffff166c01000000000000000000000000028152601401838152602001826000191660001916815260200196505050505050506040516020818303038152906040526040518082805190602001908083835b6020831015156107a2578051825260208201915060208101905060208303925061077d565b6001836020036101000a038019825116818451168082178552505050505050905001915050604051809103902090506000600102600560008360001916600019168152602001908152602001600020600001546000191614151561080557600080fd5b608060405190810160405280826000191681526020013373ffffffffffffffffffffffffffffffffffffffff1681526020018673ffffffffffffffffffffffffffffffffffffffff168152602001858152506005600083600019166000191681526020019081526020016000206000820151816000019060001916905560208201518160010160006101000a81548173ffffffffffffffffffffffffffffffffffffffff021916908373ffffffffffffffffffffffffffffffffffffffff16021790555060408201518160020160006101000a81548173ffffffffffffffffffffffffffffffffffffffff021916908373ffffffffffffffffffffffffffffffffffffffff160217905550606082015181600301559050508473ffffffffffffffffffffffffffffffffffffffff166323b872dd8730876040518463ffffffff167c0100000000000000000000000000000000000000000000000000000000028152600401808473ffffffffffffffffffffffffffffffffffffffff1673ffffffffffffffffffffffffffffffffffffffff1681526020018373ffffffffffffffffffffffffffffffffffffffff1673ffffffffffffffffffffffffffffffffffffffff1681526020018281526020019350505050602060405180830381600087803b1580156109f457600080fd5b505af1158015610a08573d6000803e3d6000fd5b505050506040513d6020811015610a1e57600080fd5b81019080805190602001909291905050501515610a3a57600080fd5b6001915050949350505050565b6000600760009054906101000a900473ffffffffffffffffffffffffffffffffffffffff1673ffffffffffffffffffffffffffffffffffffffff16636fd396d66040518163ffffffff167c0100000000000000000000000000000000000000000000000000000000028152600401602060405180830381600087803b158015610acf57600080fd5b505af1158015610ae3573d6000803e3d6000fd5b505050506040513d6020811015610af957600080fd5b8101908080519060200190929190505050905090565b6000806000610b1c611504565b6000610b26610a47565b73ffffffffffffffffffffffffffffffffffffffff163373ffffffffffffffffffffffffffffffffffffffff16141515610b5f57600080fd5b866000191660046000896000191660001916815260200190815260200160002060000154600019161480610b9a575060006001028760001916145b1515610ba557600080fd5b610bad6105a1565b600054101515610bbc57600080fd5b610bc687876112df565b935087600019168460001916141515610bde57600080fd5b610be66105a1565b60008190555086925060046000846000191660001916815260200190815260200160002060a0604051908101604052908160008201546000191660001916815260200160018201546000191660001916815260200160028201548152602001600382015481526020016004820154815250509150610c726001836040015161147790919063ffffffff16565b905060a06040519081016040528089600019168152602001886000191681526020018281526020016000548152602001600254815250600460008a600019166000191681526020019081526020016000206000820151816000019060001916905560208201518160010190600019169055604082015181600201556060820151816003015560808201518160040155905050610d1a600160025461147790919063ffffffff16565b60028190555060019450505050509392505050565b60056020528060005260406000206000915090508060000154908060010160009054906101000a900473ffffffffffffffffffffffffffffffffffffffff16908060020160009054906101000a900473ffffffffffffffffffffffffffffffffffffffff16908060030154905084565b600760009054906101000a900473ffffffffffffffffffffffffffffffffffffffff1681565b60066020528060005260406000206000915054906101000a900460ff1681565b60006001151560066000896000191660001916815260200190815260200160002060009054906101000a900460ff16151514151515610e2357600080fd5b610e2d8a89611168565b1515610e3857600080fd5b8960001916610e47898b6112df565b60001916141515610e5757600080fd5b8760001916610e6688886112df565b60001916141515610e7657600080fd5b308585858560405160200180807f65786974000000000000000000000000000000000000000000000000000000008152506004018673ffffffffffffffffffffffffffffffffffffffff1673ffffffffffffffffffffffffffffffffffffffff166c010000000000000000000000000281526014018573ffffffffffffffffffffffffffffffffffffffff1673ffffffffffffffffffffffffffffffffffffffff166c010000000000000000000000000281526014018473ffffffffffffffffffffffffffffffffffffffff1673ffffffffffffffffffffffffffffffffffffffff166c01000000000000000000000000028152601401838152602001828152602001955050505050506040516020818303038152906040526040518082805190602001908083835b602083101515610fc45780518252602082019150602081019050602083039250610f9f565b6001836020036101000a038019825116818451168082178552505050505050905001915050604051809103902090508060001916876000191614151561100957600080fd5b600160066000896000191660001916815260200190815260200160002060006101000a81548160ff0219169083151502179055508373ffffffffffffffffffffffffffffffffffffffff1663a9059cbb86856040518363ffffffff167c0100000000000000000000000000000000000000000000000000000000028152600401808373ffffffffffffffffffffffffffffffffffffffff1673ffffffffffffffffffffffffffffffffffffffff16815260200182815260200192505050602060405180830381600087803b1580156110e057600080fd5b505af11580156110f4573d6000803e3d6000fd5b505050506040513d602081101561110a57600080fd5b8101908080519060200190929190505050151561112657600080fd5b50505050505050505050565b60046020528060005260406000206000915090508060000154908060010154908060020154908060030154908060040154905085565b6000806000806111a16003546004600089600019166000191681526020019081526020016000206002015461149590919063ffffffff16565b600460008760001916600019168152602001908152602001600020600201541415156111cc57600080fd5b6000600460008760001916600019168152602001908152602001600020600201541115156111f957600080fd5b611248600460008760001916600019168152602001908152602001600020600401546004600089600019166000191681526020019081526020016000206004015461149590919063ffffffff16565b9250611299600460008760001916600019168152602001908152602001600020600201546004600089600019166000191681526020019081526020016000206002015461149590919063ffffffff16565b91506112c260646112b4606e856114ae90919063ffffffff16565b6114e990919063ffffffff16565b905080831015156112d257600080fd5b6001935050505092915050565b600080600080859250600091505b845182101561146b57848281518110151561130457fe5b9060200190602002015190508060001916836000191610156113c15782816040516020018083600019166000191681526020018260001916600019168152602001925050506040516020818303038152906040526040518082805190602001908083835b60208310151561138d5780518252602082019150602081019050602083039250611368565b6001836020036101000a0380198251168184511680821785525050505050509050019150506040518091039020925061145e565b80836040516020018083600019166000191681526020018260001916600019168152602001925050506040516020818303038152906040526040518082805190602001908083835b60208310151561142e5780518252602082019150602081019050602083039250611409565b6001836020036101000a038019825116818451168082178552505050505050905001915050604051809103902092505b81806001019250506112ed565b82935050505092915050565b600080828401905083811015151561148b57fe5b8091505092915050565b60008282111515156114a357fe5b818303905092915050565b60008060008414156114c357600091506114e2565b82840290508284828115156114d457fe5b041415156114de57fe5b8091505b5092915050565b60008082848115156114f757fe5b0490508091505092915050565b60a060405190810160405280600080191681526020016000801916815260200160008152602001600081526020016000815250905600a165627a7a72305820109240d6d9b54cad1a522a7445c6de83daa461a88846a07584f5ffed7810efbe0029",
  "source": "pragma solidity ^0.4.18;\n\n\n\n\n/*\nContract for operating and maintaining an Inferno Sidechain\nOnly stores a simple merkle tree root hash on the Ethereum Mainnet\n\n\n______\n\nThe mapping 'blocks' is a collection of blocks which all reference some other previous block.\nSidechain Nodes must determine which of these blocks has the most valid blocks sequentially behind it (ending at the genesis block, and the node must have all TX data for each block -- synced)\n\n\n*/\n\n\n\n\n/**\n * @title SafeMath\n * @dev Math operations with safety checks that throw on error\n */\nlibrary SafeMath {\n\n  /**\n  * @dev Multiplies two numbers, throws on overflow.\n  */\n  function mul(uint256 a, uint256 b) internal pure returns (uint256) {\n    if (a == 0) {\n      return 0;\n    }\n    uint256 c = a * b;\n    assert(c / a == b);\n    return c;\n  }\n\n  /**\n  * @dev Integer division of two numbers, truncating the quotient.\n  */\n  function div(uint256 a, uint256 b) internal pure returns (uint256) {\n    // assert(b > 0); // Solidity automatically throws when dividing by 0\n    uint256 c = a / b;\n    // assert(a == b * c + a % b); // There is no case in which this doesn't hold\n    return c;\n  }\n\n  /**\n  * @dev Substracts two numbers, throws on overflow (i.e. if subtrahend is greater than minuend).\n  */\n  function sub(uint256 a, uint256 b) internal pure returns (uint256) {\n    assert(b <= a);\n    return a - b;\n  }\n\n  /**\n  * @dev Adds two numbers, throws on overflow.\n  */\n  function add(uint256 a, uint256 b) internal pure returns (uint256) {\n    uint256 c = a + b;\n    assert(c >= a);\n    return c;\n  }\n}\n\n\ncontract ERC20Interface {\n    function totalSupply() public constant returns (uint);\n    function balanceOf(address tokenOwner) public constant returns (uint balance);\n    function allowance(address tokenOwner, address spender) public constant returns (uint remaining);\n    function transfer(address to, uint tokens) public returns (bool success);\n    function approve(address spender, uint tokens) public returns (bool success);\n    function transferFrom(address from, address to, uint tokens) public returns (bool success);\n\n    event Transfer(address indexed from, address indexed to, uint tokens);\n    event Approval(address indexed tokenOwner, address indexed spender, uint tokens);\n}\n\n\ncontract EIP918Interface {\n  function lastRewardTo() public returns (address);\n  function epochCount() public returns (uint);\n\n  function lastRewardAmount() public returns (uint);\n  function lastRewardEthBlockNumber() public returns (uint);\n\n  function totalSupply() public constant returns (uint);\n  function getMiningDifficulty() public constant returns (uint);\n  function getMiningTarget() public constant returns (uint);\n  function getMiningReward() public constant returns (uint);\n  function balanceOf(address tokenOwner) public constant returns (uint balance);\n\n  function mint(uint256 nonce, bytes32 challenge_digest) public returns (bool success);\n\n  event Mint(address indexed from, uint reward_amount, uint epochCount, bytes32 newChallengeNumber);\n\n}\n\n\n\ncontract InfernoSidechain   {\n    using SafeMath for uint;\n\n    uint lastBlockMiningEpoch;\n\n    uint deepestDepth;\n\n    uint totalBlockCount;\n\n    uint REQUIRED_CONFIRMATION_BLOCKS = 256;\n\n\n   // rootHash => Block\n   mapping(bytes32 => Block) public blocks;\n\n   //utxo hash -> import\n   mapping(bytes32 => GenesisImport) public imports;\n\n\n   mapping(bytes32 => bool) public validatedExitTransactions;\n\n\n   struct Block\n   {\n    bytes32 root;\n    bytes32 leaf; //root of previous block, also the first element of the hash to makes up Root\n\n    uint depth; //the number of block parents\n    uint epochCount; //for sequentiality  ... necessary ?\n    uint blockCount;\n   }\n\n   struct GenesisImport\n   {\n     bytes32 id; //utxo id\n     address sender;\n     address token;\n     uint tokens;\n   }\n\n\n    address public miningContract;\n\n\n\n   // 0xBTC is 0xb6ed7644c69416d67b522e20bc294a9a9b405b31;\n  constructor(address mContract) public  {\n    miningContract = mContract;\n\n    //add genesis block\n    lastBlockMiningEpoch = getMiningEpoch();\n    blocks[0x0] = Block(0x0,0x0,0,lastBlockMiningEpoch,totalBlockCount);\n\n    totalBlockCount = totalBlockCount.add(1);\n  }\n\n\n  //do not allow ether to enter\n  function() public payable {\n      revert();\n  }\n\n  /*\n  Based on Proof of Work, EIP 918 and Mining Contract\n\n  This will typically return a smart contract but one which implements proper forwarding methods\n  */\n  function getMiningAuthority() public returns (address)\n  {\n    return EIP918Interface(miningContract).lastRewardTo();\n  }\n\n  function getMiningEpoch() public returns (uint)\n  {\n    return EIP918Interface(miningContract).epochCount();\n  }\n\n\n\n  /*\n  Sidechain TX Formats   rev 1\n  //fee always in 0xBTC\n\n  import(from, token, tokens,fee)\n  transfer(from,to,token,tokens,fee)\n  export(from, token, tokens , fee)\n\n  PROBLEM: A contentious 51% attacker can make new 'exit' tx with no parents/history and steal tokens\n  ...perhaps use UTXO and prove them on each new block added ? ...prove them on exit ?\n\n  */\n\n\n  /*\n  In this case, the leaf is the root of the previous block\n\n  */\n  function addNewBlock(\n\n      bytes32 root,\n      bytes32 leaf,\n      bytes32[] proof\n\n    )\n      public\n      returns (bool)\n    {\n      require(msg.sender == getMiningAuthority());\n      require(blocks[leaf].root == leaf || leaf == 0x0); //must build off of an existing block OR the genesis block\n      require(lastBlockMiningEpoch <  getMiningEpoch()); //one new sidechain block per Mining Round\n\n\n      bytes32 computedHash =  _getMerkleRoot(leaf,proof);\n\n      require(computedHash == root);\n\n\n\n      //currentRootHash = root; //update to the new overall chain state\n      lastBlockMiningEpoch = getMiningEpoch();\n\n\n\n      bytes32 nextParentRoot = leaf;\n\n      Block memory parent = blocks[nextParentRoot];\n\n\n      uint thisBlockDepth = parent.depth.add(1);\n\n      //if( thisBlockDepth > deepestDepth )\n    //  {\n    //    deepestDepth = thisBlockDepth;\n      //}\n\n\n      blocks[root] = Block(root,leaf,thisBlockDepth,lastBlockMiningEpoch,totalBlockCount);\n\n      totalBlockCount = totalBlockCount.add(1);\n\n      return true;\n    }\n\n\n\n\n    function _getMerkleRoot (\n      bytes32 leaf,\n      bytes32[] proof\n     ) internal pure returns (bytes32)\n     {\n\n       bytes32 computedHash = leaf;\n\n       for (uint256 i = 0; i < proof.length; i++) {\n         bytes32 proofElement = proof[i];\n\n         if (computedHash < proofElement) {\n           computedHash = keccak256(abi.encodePacked(computedHash, proofElement));\n         } else {\n           computedHash = keccak256(abi.encodePacked(proofElement, computedHash));\n         }\n       }\n\n       return computedHash;\n\n     }\n\n\n\n\n    //import tokens\n    // This makes a new 'genesis import' hash .... saved in contract.\n    // Similar to a coinbase tx for the sidechain -- new tokens enter supply\n    function importTokensToSidechain(address from,address token, uint tokens, bytes32  input) public returns (bool)\n    {\n\n      bytes32 id = keccak256(abi.encodePacked( msg.sender, token, tokens, this, block.number, input ));\n\n      require( imports[id].id == 0); //must not exist\n\n\n      imports[id] = GenesisImport(id, msg.sender, token, tokens);\n\n      require(  ERC20Interface(token).transferFrom(from, this, tokens ) );\n\n\n      return true;\n    }\n\n\n\n    /*\n    Either ..\n      1) prevent a block from being added which has an invalid TX\n      2) catch an invalid tx with a proof\n      3) require some ECSDA signature ?  giant UTXO proof\n\n    */\n\n    //do UTXO proofing every block submission... Actually i think this is impossible\n    //should we add checkpointing ??  Let people exit if compromised?\n    //\n\n\n\n\n\n\n    //export tokens\n\n    function exportTokensFromSidechain(\n      bytes32 branchHeadRoot,\n      bytes32[] branchProof, //prove that the 'root' is part of the 'branch head root', just all the roots of the blocks between\n\n      bytes32 root,\n      bytes32 leaf, //exit transaction\n      bytes32[] proof, //all other tx in this block (their hashes)\n\n      address from,\n      address token,\n      uint tokens,\n      uint nonce // ?\n    )\n    {\n\n      //must not have exported this leaf before\n      require(validatedExitTransactions[leaf] != true);\n\n      require(_validateQualityConsensus(branchHeadRoot , root   ));\n\n      //prove that the 'root' is part of the 'branch head root' (no way to compute branchProof to fit)\n      require(_getMerkleRoot(root,branchProof) == branchHeadRoot);\n\n\n      //prove that the transaction is part of the root block (no way to compute proof to fit)\n      require(_getMerkleRoot(leaf,proof) == root);\n\n      bytes32 exitTransactionHash = keccak256(abi.encodePacked('exit',this,from,token,tokens,nonce));//this is the 'hash' of a sidechain TX\n      require( leaf == exitTransactionHash);\n\n\n      validatedExitTransactions[leaf] = true;\n      require(  ERC20Interface(token).transfer(from, tokens ));\n\n    }\n\n    //requires that the head block ultimately built on top of the tail block\n    //requires that there is REQUIRED_CONFIRMATION_BLOCKS of blocks in between\n    //requires that there was high quality consensus (>90%) over that confirmation segment\n    function _validateQualityConsensus(bytes32 headRoot,bytes32 tailRoot) public returns (bool)\n    {\n\n      //require that the segment is exactly REQUIRED_CONFIRMATION_BLOCKS blocks long\n      require(blocks[tailRoot].depth == blocks[headRoot].depth.sub(REQUIRED_CONFIRMATION_BLOCKS)); // at least 100 confirms\n      require(blocks[tailRoot].depth > 0);\n\n\n      //make sure the branch segment of the confirms (tail to head) had better than 90% consensus\n      uint blockCountDifference = blocks[headRoot].blockCount.sub( blocks[tailRoot].blockCount );\n      uint blockDepthDifference = blocks[headRoot].depth.sub( blocks[tailRoot].depth );\n\n      uint blockCountDifferenceLimit = blockDepthDifference.mul(110).div(100);\n\n      require( blockCountDifference < blockCountDifferenceLimit );\n\n      return true;\n\n    }\n\n\n\n    /*\n    User must provide a root for a head-block of a branch which has a depth\n    equal to the 'deepestDepth'  global.   We compute its depth to make sure.\n    Then,   Require a UTXO proof that there is a withdrawl tx in a block\n    under that heads sidechain branch which has at least REQUIRED_CONFIRMATION_BLOCKS confirms.\n    the UTXO must begin at the import UTXO hash.\n    */\n    //still  a WIP\n\n    //1) How do we ensure that the exit tx does not make the users sidechain balance go to 0 ?\n\n   //A) What if we had a 'checkpoint hash' that represented everyones balance !\n    // Then a whistleblower can show that a TX would make someones balance go negative\n\n\n\n\n}\n",
  "sourcePath": "/home/andy/dev/inferno-sidechain/contracts/InfernoSidechain.sol",
  "compiler": {
    "name": "solc",
    "version": "0.4.24+commit.e67f0147.Emscripten.clang"
  },
  "schemaVersion": "2.0.1",
  "updatedAt": "2018-12-07T03:45:09.510Z"
}